{
  "contractName": "Releases",
  "abi": [
    {
      "constant": true,
      "inputs": [
        {
          "name": "",
          "type": "uint256"
        }
      ],
      "name": "releases",
      "outputs": [
        {
          "name": "id",
          "type": "uint256"
        },
        {
          "name": "owner",
          "type": "address"
        },
        {
          "name": "artist",
          "type": "string"
        },
        {
          "name": "title",
          "type": "string"
        },
        {
          "name": "description",
          "type": "string"
        },
        {
          "name": "tracklist",
          "type": "string"
        },
        {
          "name": "price",
          "type": "uint64"
        },
        {
          "name": "artwork",
          "type": "string"
        }
      ],
      "payable": false,
      "stateMutability": "view",
      "type": "function"
    },
    {
      "inputs": [],
      "payable": false,
      "stateMutability": "nonpayable",
      "type": "constructor"
    },
    {
      "anonymous": false,
      "inputs": [
        {
          "indexed": false,
          "name": "owner",
          "type": "address"
        },
        {
          "indexed": false,
          "name": "title",
          "type": "string"
        },
        {
          "indexed": false,
          "name": "artist",
          "type": "string"
        }
      ],
      "name": "NewRelease",
      "type": "event"
    },
    {
      "constant": false,
      "inputs": [
        {
          "name": "_artist",
          "type": "string"
        },
        {
          "name": "_title",
          "type": "string"
        },
        {
          "name": "_description",
          "type": "string"
        },
        {
          "name": "_tracklist",
          "type": "string"
        },
        {
          "name": "_price",
          "type": "uint64"
        },
        {
          "name": "_artwork",
          "type": "string"
        },
        {
          "name": "_files",
          "type": "bytes1[120][]"
        }
      ],
      "name": "createRelease",
      "outputs": [],
      "payable": false,
      "stateMutability": "nonpayable",
      "type": "function"
    },
    {
      "constant": false,
      "inputs": [
        {
          "name": "_id",
          "type": "uint256"
        }
      ],
      "name": "purchaseRelease",
      "outputs": [],
      "payable": true,
      "stateMutability": "payable",
      "type": "function"
    },
    {
      "constant": true,
      "inputs": [],
      "name": "viewBalance",
      "outputs": [
        {
          "name": "",
          "type": "uint256"
        }
      ],
      "payable": false,
      "stateMutability": "view",
      "type": "function"
    },
    {
      "constant": false,
      "inputs": [],
      "name": "withdraw",
      "outputs": [],
      "payable": false,
      "stateMutability": "nonpayable",
      "type": "function"
    },
    {
      "constant": true,
      "inputs": [],
      "name": "getArtistReleases",
      "outputs": [
        {
          "name": "",
          "type": "uint256[]"
        }
      ],
      "payable": false,
      "stateMutability": "view",
      "type": "function"
    },
    {
      "constant": true,
      "inputs": [],
      "name": "getUserPurchases",
      "outputs": [
        {
          "name": "",
          "type": "uint256[]"
        }
      ],
      "payable": false,
      "stateMutability": "view",
      "type": "function"
    },
    {
      "constant": true,
      "inputs": [
        {
          "name": "_id",
          "type": "uint256"
        }
      ],
      "name": "releaseInfo",
      "outputs": [
        {
          "name": "",
          "type": "address"
        },
        {
          "name": "",
          "type": "string"
        },
        {
          "name": "",
          "type": "string"
        },
        {
          "name": "",
          "type": "string"
        },
        {
          "name": "",
          "type": "string"
        }
      ],
      "payable": false,
      "stateMutability": "view",
      "type": "function"
    },
    {
      "constant": true,
      "inputs": [
        {
          "name": "_id",
          "type": "uint256"
        }
      ],
      "name": "releaseContent",
      "outputs": [
        {
          "name": "",
          "type": "uint64"
        },
        {
          "name": "",
          "type": "string"
        },
        {
          "name": "",
          "type": "bytes1[120][]"
        }
      ],
      "payable": false,
      "stateMutability": "view",
      "type": "function"
    },
    {
      "constant": true,
      "inputs": [],
      "name": "releaseCount",
      "outputs": [
        {
          "name": "",
          "type": "uint256"
        }
      ],
      "payable": false,
      "stateMutability": "view",
      "type": "function"
    },
    {
      "constant": false,
      "inputs": [
        {
          "name": "_id",
          "type": "uint256"
        },
        {
          "name": "_newPrice",
          "type": "uint64"
        }
      ],
      "name": "changePrice",
      "outputs": [],
      "payable": false,
      "stateMutability": "nonpayable",
      "type": "function"
    }
  ],
  "bytecode": "0x6060604052341561000f57600080fd5b60008054600160a060020a033316600160a060020a031990911617905561183f8061003b6000396000f3006060604052600436106100ae5763ffffffff7c01000000000000000000000000000000000000000000000000000000006000350416630a82a28581146100b35780630cf7f3b5146101195780633ccfd60b1461013e5780633ff1e05b1461015157806357096cce1461017657806365e2b5531461035857806379384ea71461036b5780638e0bd1e41461054c578063b6a9f40f1461064e578063b8d08db214610900578063db3c6ffa14610913575b600080fd5b34156100be57600080fd5b6100c661091e565b60405160208082528190810183818151815260200191508051906020019060200280838360005b838110156101055780820151838201526020016100ed565b505050509050019250505060405180910390f35b341561012457600080fd5b61013c60043567ffffffffffffffff602435166109a0565b005b341561014957600080fd5b61013c610a2d565b341561015c57600080fd5b610164610a6f565b60405190815260200160405180910390f35b341561018157600080fd5b61018c600435610a8b565b6040518086600160a060020a0316600160a060020a0316815260200180602001806020018060200180602001858103855289818151815260200191508051906020019080838360005b838110156101ed5780820151838201526020016101d5565b50505050905090810190601f16801561021a5780820380516001836020036101000a031916815260200191505b50858103845288818151815260200191508051906020019080838360005b83811015610250578082015183820152602001610238565b50505050905090810190601f16801561027d5780820380516001836020036101000a031916815260200191505b50858103835287818151815260200191508051906020019080838360005b838110156102b357808201518382015260200161029b565b50505050905090810190601f1680156102e05780820380516001836020036101000a031916815260200191505b50858103825286818151815260200191508051906020019080838360005b838110156103165780820151838201526020016102fe565b50505050905090810190601f1680156103435780820380516001836020036101000a031916815260200191505b50995050505050505050505060405180910390f35b341561036357600080fd5b6100c6610ddd565b341561037657600080fd5b61013c60046024813581810190830135806020601f8201819004810201604051908101604052818152929190602084018383808284378201915050505050509190803590602001908201803590602001908080601f01602080910402602001604051908101604052818152929190602084018383808284378201915050505050509190803590602001908201803590602001908080601f01602080910402602001604051908101604052818152929190602084018383808284378201915050505050509190803590602001908201803590602001908080601f01602080910402602001604051908101604052818152929190602084018383808284378201915050505050509190803567ffffffffffffffff1690602001909190803590602001908201803590602001908080601f016020809104026020016040519081016040528181529291906020840183838082843782019150505050505091908035906020019082018035906020019080806020026020016040519081016040528181529291906000602085015b8282101561053e57610f0080830286019060789060405190810160405291908282610f00808284375050509183525050600190910190602001610500565b505050505091905050610e5c565b341561055757600080fd5b610562600435611139565b60405167ffffffffffffffff84168152606060208201818152906040830190830185818151815260200191508051906020019080838360005b838110156105b357808201518382015260200161059b565b50505050905090810190601f1680156105e05780820380516001836020036101000a031916815260200191505b508381038252848181518152602001915080516000925b8184101561063a57602080850284010151610f0080838360005b83811015610629578082015183820152602001610611565b5050505090500192600101926105f7565b925050509550505050505060405180910390f35b341561065957600080fd5b61066460043561133f565b604051888152600160a060020a038816602082015267ffffffffffffffff831660c08201526101006040820181815288546002600019600183161585020190911604918301829052906060830190608084019060a085019060e08601906101208701908d9080156107165780601f106106eb57610100808354040283529160200191610716565b820191906000526020600020905b8154815290600101906020018083116106f957829003601f168201915b505086810385528b54600260001961010060018416150201909116048082526020909101908c90801561078a5780601f1061075f5761010080835404028352916020019161078a565b820191906000526020600020905b81548152906001019060200180831161076d57829003601f168201915b505086810384528a54600260001961010060018416150201909116048082526020909101908b9080156107fe5780601f106107d3576101008083540402835291602001916107fe565b820191906000526020600020905b8154815290600101906020018083116107e157829003601f168201915b505086810383528954600260001961010060018416150201909116048082526020909101908a9080156108725780601f1061084757610100808354040283529160200191610872565b820191906000526020600020905b81548152906001019060200180831161085557829003601f168201915b50508681038252875460026000196101006001841615020190911604808252602090910190889080156108e65780601f106108bb576101008083540402835291602001916108e6565b820191906000526020600020905b8154815290600101906020018083116108c957829003601f168201915b50509d505050505050505050505050505060405180910390f35b341561090b57600080fd5b61016461139d565b61013c6004356113a3565b6109266114a9565b6004600033600160a060020a0316600160a060020a0316815260200190815260200160002080548060200260200160405190810160405280929190818152602001828054801561099557602002820191906000526020600020905b815481526020019060010190808311610981575b505050505090505b90565b8133600160a060020a03166001828154811015156109ba57fe5b6000918252602090912060016009909202010154600160a060020a0316146109e157600080fd5b816001848154811015156109f157fe5b906000526020600020906009020160060160006101000a81548167ffffffffffffffff021916908367ffffffffffffffff160217905550505050565b600160a060020a033316600081815260026020526040908190205480156108fc029151600060405180830381858888f193505050501515610a6d57600080fd5b565b600160a060020a03331660009081526002602052604090205490565b6000610a956114a9565b610a9d6114a9565b610aa56114a9565b610aad6114a9565b6001805487908110610abb57fe5b6000918252602090912060016009909202018101548154600160a060020a03909116919088908110610ae957fe5b9060005260206000209060090201600201600188815481101515610b0957fe5b9060005260206000209060090201600301600189815481101515610b2957fe5b906000526020600020906009020160040160018a815481101515610b4957fe5b9060005260206000209060090201600501838054600181600116156101000203166002900480601f016020809104026020016040519081016040528092919081815260200182805460018160011615610100020316600290048015610bef5780601f10610bc457610100808354040283529160200191610bef565b820191906000526020600020905b815481529060010190602001808311610bd257829003601f168201915b50505050509350828054600181600116156101000203166002900480601f016020809104026020016040519081016040528092919081815260200182805460018160011615610100020316600290048015610c8b5780601f10610c6057610100808354040283529160200191610c8b565b820191906000526020600020905b815481529060010190602001808311610c6e57829003601f168201915b50505050509250818054600181600116156101000203166002900480601f016020809104026020016040519081016040528092919081815260200182805460018160011615610100020316600290048015610d275780601f10610cfc57610100808354040283529160200191610d27565b820191906000526020600020905b815481529060010190602001808311610d0a57829003601f168201915b50505050509150808054600181600116156101000203166002900480601f016020809104026020016040519081016040528092919081815260200182805460018160011615610100020316600290048015610dc35780601f10610d9857610100808354040283529160200191610dc3565b820191906000526020600020905b815481529060010190602001808311610da657829003601f168201915b505050505090509450945094509450945091939590929450565b610de56114a9565b6003600033600160a060020a0316600160a060020a031681526020019081526020016000208054806020026020016040519081016040528092919081815260200182805480156109955760200282019190600052602060002090815481526020019060010190808311610981575050505050905090565b600180549081808201610e6f83826114bb565b916000526020600020906009020160006101206040519081016040528085815260200133600160a060020a031681526020018c81526020018b81526020018a81526020018981526020018867ffffffffffffffff16815260200187815260200186815250909190915060008201518155602082015160018201805473ffffffffffffffffffffffffffffffffffffffff1916600160a060020a0392909216919091179055604082015181600201908051610f2d9291602001906114ec565b50606082015181600301908051610f489291602001906114ec565b50608082015181600401908051610f639291602001906114ec565b5060a082015181600501908051610f7e9291602001906114ec565b5060c082015160068201805467ffffffffffffffff191667ffffffffffffffff9290921691909117905560e082015181600701908051610fc29291602001906114ec565b5061010082015181600801908051610fde92916020019061156a565b505050600160a060020a033316600090815260046020526040902080549091506001810161100c83826115c0565b5060009182526020909120018190557f59329f66748f54e9725e4ba06df6cdd0706caa6c08b793ce054762034b2739b133888a604051600160a060020a0384168152606060208201818152906040830190830185818151815260200191508051906020019080838360005b8381101561108f578082015183820152602001611077565b50505050905090810190601f1680156110bc5780820380516001836020036101000a031916815260200191505b50838103825284818151815260200191508051906020019080838360005b838110156110f25780820151838201526020016110da565b50505050905090810190601f16801561111f5780820380516001836020036101000a031916815260200191505b509550505050505060405180910390a15050505050505050565b60006111436114a9565b61114b6114a9565b600180548590811061115957fe5b60009182526020909120600660099092020101546001805467ffffffffffffffff909216918690811061118857fe5b90600052602060002090600902016007016001868154811015156111a857fe5b9060005260206000209060090201600801818054600181600116156101000203166002900480601f01602080910402602001604051908101604052809291908181526020018280546001816001161561010002031660029004801561124e5780601f106112235761010080835404028352916020019161124e565b820191906000526020600020905b81548152906001019060200180831161123157829003601f168201915b505050505091508080548060200260200160405190810160405281815291906000602084015b8282101561132c5760008481526020902060048302016078610f006040519081016040529190610f008301826000855b82829054906101000a90047f0100000000000000000000000000000000000000000000000000000000000000027effffffffffffffffffffffffffffffffffffffffffffffffffffffffffffff1916815260200190600101906020826000010492830192600103820291508084116112a4579050505050505081526020019060010190611274565b5050505090509250925092509193909250565b600180548290811061134d57fe5b60009182526020909120600990910201805460018201546006830154919350600160a060020a031691600281019160038201916004810191600582019167ffffffffffffffff9091169060070188565b60015490565b8060006001828154811015156113b557fe5b6000918252602090912060066009909202010154655af3107a400067ffffffffffffffff9182160216905034819010156113ee57600080fd5b346002600060018681548110151561140257fe5b600091825260208083206001600990930201820154600160a060020a0316845283019390935260409091018120548254930192600292908790811061144357fe5b600091825260208083206001600990930201820154600160a060020a039081168552848201959095526040938401832095909555339093168152600390935290912080549091810161149583826115c0565b506000918252602090912001929092555050565b60206040519081016040526000815290565b8154818355818115116114e7576009028160090283600052602060002091820191016114e791906115e4565b505050565b828054600181600116156101000203166002900490600052602060002090601f016020900481019282601f1061152d57805160ff191683800117855561155a565b8280016001018555821561155a579182015b8281111561155a57825182559160200191906001019061153f565b50611566929150611685565b5090565b8280548282559060005260206000209060040281019282156115b4579160200282015b828111156115b45782516115a4908390607861169f565b509160200191906004019061158d565b5061156692915061174e565b8154818355818115116114e7576000838152602090206114e7918101908301611685565b61099d91905b8082111561156657600080825560018201805473ffffffffffffffffffffffffffffffffffffffff191690556116236002830182611771565b611631600383016000611771565b61163f600483016000611771565b61164d600583016000611771565b60068201805467ffffffffffffffff1916905561166e600783016000611771565b61167c6008830160006117b8565b506009016115ea565b61099d91905b80821115611566576000815560010161168b565b6004830191839082156117425791602002820160005b8382111561171357835183826101000a81548160ff02191690837f01000000000000000000000000000000000000000000000000000000000000009004021790555092602001926001016020816000010492830192600103026116b5565b80156117405782816101000a81549060ff0219169055600101602081600001049283019260010302611713565b505b506115669291506117d9565b61099d91905b8082111561156657600061176882826117f7565b50600401611754565b50805460018160011615610100020316600290046000825580601f1061179757506117b5565b601f0160209004906000526020600020908101906117b59190611685565b50565b50805460008255600402906000526020600020908101906117b5919061174e565b61099d91905b8082111561156657805460ff191681556001016117df565b50600081556001016000815560010160008155600101600090555600a165627a7a72305820d46c4764c2578297bebe7dcf90b11a3cb0d1125b58fd99e9a2645538623ba01e0029",
  "source": "pragma solidity ^0.4.19;\n\ncontract Releases {\n\n  address owner;\n\n  function Releases() public {\n      owner = msg.sender;\n  }\n\n  struct Release {\n    uint id;\n    address owner;\n    string artist;\n    string title;\n    string description;\n    string tracklist;\n    /*  price is a 5 digit float 0.0000 */\n    uint64 price;\n    string artwork;\n    byte[120][] files;\n  }\n\n  Release[] public releases;\n  mapping (address => uint) balance;\n  mapping (address => uint[]) userPurchases;\n  mapping (address => uint[]) artistReleases;\n  event NewRelease(address owner, string title, string artist);\n\n  modifier onlyReleaseOwner(uint _id) {\n    require(releases[_id].owner == msg.sender);\n    _;\n  }\n\n  modifier verifyPayment(uint _id) {\n    uint weiPrice = releases[_id].price * 100000000000000;\n    require(msg.value >= weiPrice);\n    _;\n  }\n\n  /* modifier verifyPurchase(uint _id) {\n    check the userPurchases mapping\n  } */\n\n  function createRelease(string _artist, string _title, string _description, string _tracklist, uint64 _price, string _artwork, byte[120][] _files) public {\n    uint id = releases.length;\n    releases.push(Release(id, msg.sender, _artist, _title, _description, _tracklist, _price, _artwork, _files));\n    artistReleases[msg.sender].push(id);\n    NewRelease(msg.sender, _title, _artist);\n  }\n\n  /*  transaction calls */\n\n  function purchaseRelease(uint _id) public payable verifyPayment(_id) {\n    balance[releases[_id].owner] = balance[releases[_id].owner] + msg.value;\n    userPurchases[msg.sender].push(_id);\n  }\n\n  function viewBalance() public view returns (uint){\n    return balance[msg.sender];\n  }\n\n  function withdraw() public {\n    msg.sender.transfer(balance[msg.sender]);\n  }\n\n  /*  release info data calls */\n\n  function getArtistReleases() public view returns (uint[]) {\n    return artistReleases[msg.sender];\n  }\n\n  function getUserPurchases() public view returns (uint[]) {\n    return userPurchases[msg.sender];\n  }\n\n  function releaseInfo(uint _id) public view returns (address, string, string, string, string) {\n    return (releases[_id].owner, releases[_id].artist, releases[_id].title, releases[_id].description, releases[_id].tracklist);\n  }\n\n  function releaseContent(uint _id) public view returns (uint64, string, byte[120][]) {\n    return (releases[_id].price, releases[_id].artwork, releases[_id].files);\n  }\n\n  function releaseCount() public view returns (uint){\n    return releases.length;\n  }\n\n  /*  release management calls */\n\n  function changePrice(uint _id, uint64 _newPrice) public onlyReleaseOwner(_id) {\n    releases[_id].price = _newPrice;\n  }\n\n}\n",
  "sourcePath": "/Users/jtregoat/Github/resound/contracts/Releases.sol",
  "compiler": {
    "name": "solc",
    "version": "0.4.19+commit.c4cbbb05.Emscripten.clang"
  },
  "schemaVersion": "2.0.0",
  "updatedAt": "2018-03-26T19:35:55.035Z"
}